:020000040800F2
:1000000000280020890200082902000835020008A3
:100010003B020008410200084702000800000000FF
:100020000000000000000000000000004D02000879
:100030005902000800000000650200087102000873
:10004000D1020008D1020008D1020008D102000844
:10005000D1020008D1020008FD010008D102000809
:10006000D1020008D1020008D1020008D102000824
:10007000D1020008D1020008D1020008D102000814
:10008000D1020008D1020008D1020008D102000804
:10009000D1020008D1020008D1020008D1020008F4
:1000A000D1020008D1020008D1020008D1020008E4
:1000B000D1020008D102000800000000D1020008AF
:1000C000D10200080000000000000000D10200087A
:1000D00000000000D1020008D1020008000000006A
:1000E000D1020008D1020008D1020008000000007F
:1000F0000000000000000000000000000000000000
:0C01000000000000000000005FF808F1A3
:10010C0010B5054C237833B9044B13B10448AFF345
:10011C0000800123237010BD0400002000000000AB
:10012C004003000808B5034B1BB103490348AFF368
:10013C00008008BD000000000800002040030008FB
:10014C0080B400AF074B1B68064A43F004031360EE
:10015C00044B1B68034A43F00103136000BFBD4608
:10016C0080BC70471810024080B400AF0A4B1B686B
:10017C00094A23F470031360074B1B68064A43F4C7
:10018C0000131360054B1B68044A43F0040313600F
:10019C0000BFBD4680BC7047040801400008014008
:1001AC0080B500AFFFF7CCFFFFF7DEFF0C4B1B68F1
:1001BC000B4A43F0010313600A4B1B68094A43F0D6
:1001CC0001031360084B1B68074A23F011031360EB
:1001DC00064B1B68054A43F040031360FEE700BF63
:1001EC0000040140080401400800014000E100E067
:1001FC0080B400AF074B1B68064A83F400531360AE
:10020C00054B1B68044A43F00103136000BFBD4655
:10021C0080BC70470C0801401404014080B400AF4E
:10022C0000BFBD4680BC704780B400AFFEE780B411
:10023C0000AFFEE780B400AFFEE780B400AFFEE78E
:10024C0080B400AF00BFBD4680BC704780B400AF27
:10025C0000BFBD4680BC704780B400AF00BFBD4638
:10026C0080BC704780B500AF00F02EF800BF80BD99
:10027C0080B400AF00BFBD4680BC70470C480D4930
:10028C000D4A002302E0D458C4500433C4188C42E5
:10029C00F9D30A4A0A4C002301E013600432A2424B
:1002AC00FBD3FFF7E5FF00F021F8FFF779FF70476C
:1002BC00000000200400002060030008040000205F
:1002CC0024000020FEE7000080B400AF054B1B7833
:1002DC001A46054B1B681344034A136000BFBD4606
:1002EC0080BC7047000000202000002070B5002565
:1002FC000C4E0D4CA41BA410A54209D100F01AF809
:10030C0000250A4E0A4CA41BA410A54205D170BDB1
:10031C0056F8253098470135EEE756F825309847C2
:10032C000135F2E758030008580300085803000889
:10033C005C030008F8B500BFF8BC08BC9E467047CB
:0C034C00F8B500BFF8BC08BC9E46704726
:040358003101000867
:04035C000D01000887
:040360000100000098
:040000050800028964
:00000001FF
