:020000040800F2
:100000000028002045020008E5010008F101000871
:10001000F7010008FD0100080302000800000000CD
:1000200000000000000000000000000009020008BD
:100030001502000800000000210200082D0200083F
:100040008D0200088D0200088D0200088D02000854
:100050008D0200088D0200088D0200088D02000844
:100060008D0200088D0200088D0200088D02000834
:100070008D0200088D0200088D0200088D02000824
:100080008D0200088D0200088D0200088D02000814
:100090008D0200088D0200088D0200088D02000804
:1000A0008D0200088D0200088D0200088D020008F4
:1000B0008D0200088D020008000000008D0200087B
:1000C0008D02000800000000000000008D02000802
:1000D000000000008D0200088D02000800000000F2
:1000E0008D0200088D0200088D020008000000004B
:1000F0000000000000000000000000000000000000
:0C01000000000000000000005FF808F1A3
:10010C0010B5054C237833B9044B13B10448AFF345
:10011C0000800123237010BD0400002000000000AB
:10012C00FC02000808B5034B1BB103490348AFF3AD
:10013C00008008BD0000000008000020FC02000840
:10014C0080B483B000AF204B1B681F4A43F480631C
:10015C0013601D4B1B681C4A43F4205313601B4B4C
:10016C001B681A4A43F004031360194B1B68184AA6
:10017C0023F470031360164B1B68154A43F40013E9
:10018C001360144B1B68134A43F400531360002391
:10019C007B6002E07B6801337B607B6841F28732D5
:1001AC009342F7DD0B4B1B680A4A23F40053136090
:1001BC0000233B6002E03B6801333B603B6841F24B
:1001CC0087329342F7DDDCE704100240181002403E
:1001DC00040801400C08014080B400AF00BFBD46CC
:1001EC0080BC704780B400AFFEE780B400AFFEE780
:1001FC0080B400AFFEE780B400AFFEE780B400AF80
:10020C0000BFBD4680BC704780B400AF00BFBD4688
:10021C0080BC704780B400AF00BFBD4680BC704747
:10022C0080B500AF00F02EF800BF80BD80B400AFE9
:10023C0000BFBD4680BC70470C480D490D4A0023D9
:10024C0002E0D458C4500433C4188C42F9D30A4A7F
:10025C000A4C002301E013600432A242FBD3FFF7E7
:10026C00E5FF00F021F8FFF76BFF7047000000205E
:10027C00040000201C0300080400002024000020BF
:10028C00FEE7000080B400AF054B1B781A46054B07
:10029C001B681344034A136000BFBD4680BC704703
:1002AC00000000202000002070B500250C4E0D4CE5
:1002BC00A41BA410A54209D100F01AF800250A4E7F
:1002CC000A4CA41BA410A54205D170BD56F82530CC
:1002DC0098470135EEE756F8253098470135F2E797
:1002EC001403000814030008140300081803000882
:1002FC00F8B500BFF8BC08BC9E467047F8B500BF07
:08030C00F8BC08BC9E467047D6
:0403140031010008AB
:040318000D010008CB
:04031C0001000000DC
:0400000508000245A8
:00000001FF
